{
  "contractName": "GAX_Artbits",
  "abi": [
    {
      "inputs": [],
      "stateMutability": "nonpayable",
      "type": "constructor"
    },
    {
      "anonymous": false,
      "inputs": [
        {
          "indexed": true,
          "internalType": "address",
          "name": "owner",
          "type": "address"
        },
        {
          "indexed": true,
          "internalType": "address",
          "name": "spender",
          "type": "address"
        },
        {
          "indexed": false,
          "internalType": "uint256",
          "name": "value",
          "type": "uint256"
        }
      ],
      "name": "Approval",
      "type": "event"
    },
    {
      "anonymous": false,
      "inputs": [
        {
          "indexed": true,
          "internalType": "address",
          "name": "from",
          "type": "address"
        },
        {
          "indexed": true,
          "internalType": "address",
          "name": "to",
          "type": "address"
        },
        {
          "indexed": false,
          "internalType": "uint256",
          "name": "value",
          "type": "uint256"
        }
      ],
      "name": "Transfer",
      "type": "event"
    },
    {
      "anonymous": false,
      "inputs": [
        {
          "indexed": false,
          "internalType": "address",
          "name": "sender",
          "type": "address"
        },
        {
          "indexed": false,
          "internalType": "address",
          "name": "receiver",
          "type": "address"
        },
        {
          "indexed": false,
          "internalType": "uint256",
          "name": "amount",
          "type": "uint256"
        }
      ],
      "name": "TransferFromCalled",
      "type": "event"
    },
    {
      "inputs": [
        {
          "internalType": "address",
          "name": "owner",
          "type": "address"
        },
        {
          "internalType": "address",
          "name": "spender",
          "type": "address"
        }
      ],
      "name": "allowance",
      "outputs": [
        {
          "internalType": "uint256",
          "name": "",
          "type": "uint256"
        }
      ],
      "stateMutability": "view",
      "type": "function",
      "constant": true
    },
    {
      "inputs": [
        {
          "internalType": "address",
          "name": "spender",
          "type": "address"
        },
        {
          "internalType": "uint256",
          "name": "amount",
          "type": "uint256"
        }
      ],
      "name": "approve",
      "outputs": [
        {
          "internalType": "bool",
          "name": "",
          "type": "bool"
        }
      ],
      "stateMutability": "nonpayable",
      "type": "function"
    },
    {
      "inputs": [
        {
          "internalType": "address",
          "name": "account",
          "type": "address"
        }
      ],
      "name": "balanceOf",
      "outputs": [
        {
          "internalType": "uint256",
          "name": "",
          "type": "uint256"
        }
      ],
      "stateMutability": "view",
      "type": "function",
      "constant": true
    },
    {
      "inputs": [
        {
          "internalType": "address",
          "name": "spender",
          "type": "address"
        },
        {
          "internalType": "uint256",
          "name": "subtractedValue",
          "type": "uint256"
        }
      ],
      "name": "decreaseAllowance",
      "outputs": [
        {
          "internalType": "bool",
          "name": "",
          "type": "bool"
        }
      ],
      "stateMutability": "nonpayable",
      "type": "function"
    },
    {
      "inputs": [],
      "name": "gaxInstance",
      "outputs": [
        {
          "internalType": "contract GAX_FNFT",
          "name": "",
          "type": "address"
        }
      ],
      "stateMutability": "view",
      "type": "function",
      "constant": true
    },
    {
      "inputs": [
        {
          "internalType": "address",
          "name": "spender",
          "type": "address"
        },
        {
          "internalType": "uint256",
          "name": "addedValue",
          "type": "uint256"
        }
      ],
      "name": "increaseAllowance",
      "outputs": [
        {
          "internalType": "bool",
          "name": "",
          "type": "bool"
        }
      ],
      "stateMutability": "nonpayable",
      "type": "function"
    },
    {
      "inputs": [],
      "name": "name",
      "outputs": [
        {
          "internalType": "string",
          "name": "",
          "type": "string"
        }
      ],
      "stateMutability": "view",
      "type": "function",
      "constant": true
    },
    {
      "inputs": [],
      "name": "symbol",
      "outputs": [
        {
          "internalType": "string",
          "name": "",
          "type": "string"
        }
      ],
      "stateMutability": "view",
      "type": "function",
      "constant": true
    },
    {
      "inputs": [],
      "name": "totalSupply",
      "outputs": [
        {
          "internalType": "uint256",
          "name": "",
          "type": "uint256"
        }
      ],
      "stateMutability": "view",
      "type": "function",
      "constant": true
    },
    {
      "inputs": [
        {
          "internalType": "string",
          "name": "_name",
          "type": "string"
        },
        {
          "internalType": "string",
          "name": "_symbol",
          "type": "string"
        },
        {
          "internalType": "uint256",
          "name": "_initialSupply",
          "type": "uint256"
        },
        {
          "internalType": "address",
          "name": "_gaxAdmin",
          "type": "address"
        },
        {
          "internalType": "address",
          "name": "_gaxAddress",
          "type": "address"
        },
        {
          "internalType": "uint256",
          "name": "_tokenId",
          "type": "uint256"
        },
        {
          "internalType": "uint256",
          "name": "_dex_rp",
          "type": "uint256"
        },
        {
          "internalType": "uint256",
          "name": "_p2p_rp",
          "type": "uint256"
        }
      ],
      "name": "initialize",
      "outputs": [
        {
          "internalType": "bool",
          "name": "",
          "type": "bool"
        }
      ],
      "stateMutability": "nonpayable",
      "type": "function"
    },
    {
      "inputs": [
        {
          "internalType": "address",
          "name": "recipient",
          "type": "address"
        },
        {
          "internalType": "uint256",
          "name": "amount",
          "type": "uint256"
        }
      ],
      "name": "transfer",
      "outputs": [
        {
          "internalType": "bool",
          "name": "",
          "type": "bool"
        }
      ],
      "stateMutability": "nonpayable",
      "type": "function"
    },
    {
      "inputs": [
        {
          "internalType": "address",
          "name": "sender",
          "type": "address"
        },
        {
          "internalType": "address",
          "name": "recipient",
          "type": "address"
        },
        {
          "internalType": "uint256",
          "name": "amount",
          "type": "uint256"
        }
      ],
      "name": "transferFrom",
      "outputs": [
        {
          "internalType": "bool",
          "name": "",
          "type": "bool"
        }
      ],
      "stateMutability": "nonpayable",
      "type": "function"
    },
    {
      "inputs": [
        {
          "internalType": "address",
          "name": "sender",
          "type": "address"
        },
        {
          "internalType": "address",
          "name": "recipient",
          "type": "address"
        },
        {
          "internalType": "uint256",
          "name": "amount",
          "type": "uint256"
        }
      ],
      "name": "transferPlatform",
      "outputs": [
        {
          "internalType": "bool",
          "name": "",
          "type": "bool"
        }
      ],
      "stateMutability": "nonpayable",
      "type": "function"
    },
    {
      "inputs": [],
      "name": "decimals",
      "outputs": [
        {
          "internalType": "uint8",
          "name": "",
          "type": "uint8"
        }
      ],
      "stateMutability": "view",
      "type": "function",
      "constant": true
    },
    {
      "inputs": [
        {
          "internalType": "address",
          "name": "_singleton",
          "type": "address"
        }
      ],
      "name": "upgradeSingleton",
      "outputs": [],
      "stateMutability": "nonpayable",
      "type": "function"
    }
  ],
  "bytecode": "0x608060405234801561001057600080fd5b506000547501000000000000000000000000000000000000000000900460ff1680610056575060005474010000000000000000000000000000000000000000900460ff16155b6100e6576040517f08c379a000000000000000000000000000000000000000000000000000000000815260206004820152602e60248201527f496e697469616c697a61626c653a20636f6e747261637420697320616c72656160448201527f647920696e697469616c697a6564000000000000000000000000000000000000606482015260840160405180910390fd5b6000547501000000000000000000000000000000000000000000900460ff16158015610136576000805460a060020a61ffff02191675010100000000000000000000000000000000000000001790555b801561014d576000805460a860020a60ff02191690555b5061192c8061015d6000396000f3fe608060405234801561001057600080fd5b50600436106100f95760003560e060020a90048063661940701161009b578063a9059cbb1161006a578063a9059cbb146101f2578063bf80b67314610205578063ce1c61b614610230578063dd62ed3e1461024357600080fd5b8063661940701461019b57806370a08231146101ae57806395d89b41146101d7578063a457c2d7146101df57600080fd5b806318160ddd116100d757806318160ddd1461015457806323b872dd14610166578063313ce56714610179578063395093511461018857600080fd5b806306fdde03146100fe578063095ea7b31461011c57806310e888921461013f575b600080fd5b61010661027c565b604051610113919061174c565b60405180910390f35b61012f61012a366004611650565b61030e565b6040519015158152602001610113565b61015261014d366004611595565b610324565b005b6035545b604051908152602001610113565b61012f61017436600461160f565b610444565b60405160008152602001610113565b61012f610196366004611650565b610553565b61012f6101a936600461169e565b61058f565b6101586101bc366004611595565b600160a060020a031660009081526033602052604090205490565b61010661069d565b61012f6101ed366004611650565b6106ac565b61012f610200366004611650565b610760565b606a5461021890600160a060020a031681565b604051600160a060020a039091168152602001610113565b61012f61023e36600461160f565b61076d565b6101586102513660046115d6565b600160a060020a03918216600090815260346020908152604080832093909416825291909152205490565b60606036805461028b90611871565b80601f01602080910402602001604051908101604052809291908181526020018280546102b790611871565b80156103045780601f106102d957610100808354040283529160200191610304565b820191906000526020600020905b8154815290600101906020018083116102e757829003601f168201915b5050505050905090565b600061031b3384846107d8565b50600192915050565b606a60009054906101000a9004600160a060020a0316600160a060020a03166329575f6a6040518163ffffffff1660e060020a02815260040160206040518083038186803b15801561037557600080fd5b505afa158015610389573d6000803e3d6000fd5b505050506040513d601f19601f820116820180604052508101906103ad91906115b9565b600160a060020a031633600160a060020a0316146104155760405160e560020a62461bcd02815260206004820152600d60248201527f556e617574686f72697a65642e0000000000000000000000000000000000000060448201526064015b60405180910390fd5b6000805473ffffffffffffffffffffffffffffffffffffffff1916600160a060020a0392909216919091179055565b600160a060020a038084166000908152603460209081526040808320938616835292905290812054828110156104e55760405160e560020a62461bcd02815260206004820152602860248201527f45524332303a207472616e7366657220616d6f756e742065786365656473206160448201527f6c6c6f77616e6365000000000000000000000000000000000000000000000000606482015260840161040c565b6104f0858585610936565b6104fd85338584036107d8565b60408051600160a060020a038088168252861660208201529081018490527f5a6fba7057bfcab4df7826f671557535c8430f576ea51d157eb2bf19b79589bb9060600160405180910390a1506001949350505050565b336000818152603460209081526040808320600160a060020a0387168452909152812054909161031b91859061058a9086906117fe565b6107d8565b6000805460a860020a900460ff16806105b2575060005460a060020a900460ff16155b6105d15760405160e560020a62461bcd02815260040161040c906117a1565b60005460a860020a900460ff1615801561061d576000805475ffff0000000000000000000000000000000000000000191675010100000000000000000000000000000000000000001790555b6106278a8a610e66565b6106318789610f30565b606a805473ffffffffffffffffffffffffffffffffffffffff1916600160a060020a038816179055610666858886868c611012565b600191508015610690576000805475ff000000000000000000000000000000000000000000191690555b5098975050505050505050565b60606037805461028b90611871565b336000908152603460209081526040808320600160a060020a0386168452909152812054828110156107495760405160e560020a62461bcd02815260206004820152602560248201527f45524332303a2064656372656173656420616c6c6f77616e63652062656c6f7760448201527f207a65726f000000000000000000000000000000000000000000000000000000606482015260840161040c565b61075633858584036107d8565b5060019392505050565b600061031b338484610936565b606a54600090600160a060020a031633146107cd5760405160e560020a62461bcd02815260206004820152600c60248201527f756e617574686f72697a65640000000000000000000000000000000000000000604482015260640161040c565b610756848484610936565b600160a060020a0383166108565760405160e560020a62461bcd028152602060048201526024808201527f45524332303a20617070726f76652066726f6d20746865207a65726f2061646460448201527f7265737300000000000000000000000000000000000000000000000000000000606482015260840161040c565b600160a060020a0382166108d55760405160e560020a62461bcd02815260206004820152602260248201527f45524332303a20617070726f766520746f20746865207a65726f20616464726560448201527f7373000000000000000000000000000000000000000000000000000000000000606482015260840161040c565b600160a060020a0383811660008181526034602090815260408083209487168084529482529182902085905590518481527f8c5be1e5ebec7d5bd14f71427d1e84f3dd0314c0f7b2291e5b200ac8c7c3b925910160405180910390a3505050565b600080606a60009054906101000a9004600160a060020a0316600160a060020a0316635fe1105e6040518163ffffffff1660e060020a02815260040160206040518083038186803b15801561098a57600080fd5b505afa15801561099e573d6000803e3d6000fd5b505050506040513d601f19601f820116820180604052508101906109c291906115b9565b606a546040517f3af32abf000000000000000000000000000000000000000000000000000000008152600160a060020a038881166004830152929350911690633af32abf9060240160206040518083038186803b158015610a2257600080fd5b505afa158015610a36573d6000803e3d6000fd5b505050506040513d601f19601f82011682018060405250810190610a5a919061167c565b80610af65750606a546040517f3af32abf000000000000000000000000000000000000000000000000000000008152600160a060020a03868116600483015290911690633af32abf9060240160206040518083038186803b158015610abe57600080fd5b505afa158015610ad2573d6000803e3d6000fd5b505050506040513d601f19601f82011682018060405250810190610af6919061167c565b80610b12575080600160a060020a031684600160a060020a0316145b80610b2e575080600160a060020a031685600160a060020a0316145b15610b3b57829150610e07565b606a546040517f51b90019000000000000000000000000000000000000000000000000000000008152600160a060020a038781166004830152909116906351b900199060240160206040518083038186803b158015610b9957600080fd5b505afa158015610bad573d6000803e3d6000fd5b505050506040513d601f19601f82011682018060405250810190610bd1919061167c565b80610c6d5750606a546040517f51b90019000000000000000000000000000000000000000000000000000000008152600160a060020a038681166004830152909116906351b900199060240160206040518083038186803b158015610c3557600080fd5b505afa158015610c49573d6000803e3d6000fd5b505050506040513d601f19601f82011682018060405250810190610c6d919061167c565b15610d4057600061271084606654610c85919061183b565b610c8f9190611816565b606954909150610caa908790600160a060020a0316836110b9565b606a546065546040517f5b60d374000000000000000000000000000000000000000000000000000000008152600481018490526024810191909152600160a060020a0390911690635b60d37490604401600060405180830381600087803b158015610d1457600080fd5b505af1158015610d28573d6000803e3d6000fd5b505050508084610d38919061185a565b925050610e07565b600061271084606754610d53919061183b565b610d5d9190611816565b606954909150610d78908790600160a060020a0316836110b9565b610d82818561185a565b606a546065546040517f432a4331000000000000000000000000000000000000000000000000000000008152600481018590526024810191909152919450600160a060020a03169063432a433190604401600060405180830381600087803b158015610ded57600080fd5b505af1158015610e01573d6000803e3d6000fd5b50505050505b610e128585846110b9565b83600160a060020a031685600160a060020a03167fddf252ad1be2c89b69c2b068fc378daa952ba7f163c4a11628f55a4df523b3ef85604051610e5791815260200190565b60405180910390a35050505050565b60005460a860020a900460ff1680610e88575060005460a060020a900460ff16155b610ea75760405160e560020a62461bcd02815260040161040c906117a1565b60005460a860020a900460ff16158015610ef3576000805475ffff0000000000000000000000000000000000000000191675010100000000000000000000000000000000000000001790555b610efb6112da565b610f058383611390565b8015610f2b576000805475ff000000000000000000000000000000000000000000191690555b505050565b600160a060020a038216610f895760405160e560020a62461bcd02815260206004820152601f60248201527f45524332303a206d696e7420746f20746865207a65726f206164647265737300604482015260640161040c565b8060356000828254610f9b91906117fe565b9091555050600160a060020a03821660009081526033602052604081208054839290610fc89084906117fe565b9091555050604051818152600160a060020a038316906000907fddf252ad1be2c89b69c2b068fc378daa952ba7f163c4a11628f55a4df523b3ef9060200160405180910390a35050565b60695460a060020a900460ff161561106f5760405160e560020a62461bcd02815260206004820152601560248201527f417373657420616c726561647920757064617465640000000000000000000000604482015260640161040c565b6065949094556069805460669390935560679190915560689390935574ffffffffffffffffffffffffffffffffffffffffff1916600160a060020a039091161760a060020a179055565b600160a060020a0383166111385760405160e560020a62461bcd02815260206004820152602560248201527f45524332303a207472616e736665722066726f6d20746865207a65726f20616460448201527f6472657373000000000000000000000000000000000000000000000000000000606482015260840161040c565b600160a060020a0382166111b75760405160e560020a62461bcd02815260206004820152602360248201527f45524332303a207472616e7366657220746f20746865207a65726f206164647260448201527f6573730000000000000000000000000000000000000000000000000000000000606482015260840161040c565b600160a060020a038316600090815260336020526040902054818110156112495760405160e560020a62461bcd02815260206004820152602660248201527f45524332303a207472616e7366657220616d6f756e742065786365656473206260448201527f616c616e63650000000000000000000000000000000000000000000000000000606482015260840161040c565b600160a060020a038085166000908152603360205260408082208585039055918516815290812080548492906112809084906117fe565b9250508190555082600160a060020a031684600160a060020a03167fddf252ad1be2c89b69c2b068fc378daa952ba7f163c4a11628f55a4df523b3ef846040516112cc91815260200190565b60405180910390a350505050565b60005460a860020a900460ff16806112fc575060005460a060020a900460ff16155b61131b5760405160e560020a62461bcd02815260040161040c906117a1565b60005460a860020a900460ff16158015611367576000805475ffff0000000000000000000000000000000000000000191675010100000000000000000000000000000000000000001790555b801561138d576000805475ff000000000000000000000000000000000000000000191690555b50565b60005460a860020a900460ff16806113b2575060005460a060020a900460ff16155b6113d15760405160e560020a62461bcd02815260040161040c906117a1565b60005460a860020a900460ff1615801561141d576000805475ffff0000000000000000000000000000000000000000191675010100000000000000000000000000000000000000001790555b825161143090603690602086019061146f565b50815161144490603790602085019061146f565b508015610f2b576000805475ff00000000000000000000000000000000000000000019169055505050565b82805461147b90611871565b90600052602060002090601f01602090048101928261149d57600085556114e3565b82601f106114b657805160ff19168380011785556114e3565b828001600101855582156114e3579182015b828111156114e35782518255916020019190600101906114c8565b506114ef9291506114f3565b5090565b5b808211156114ef57600081556001016114f4565b600082601f83011261151957600080fd5b813567ffffffffffffffff80821115611534576115346118c8565b604051601f8301601f19908116603f0116810190828211818310171561155c5761155c6118c8565b8160405283815286602085880101111561157557600080fd5b836020870160208301376000602085830101528094505050505092915050565b6000602082840312156115a757600080fd5b81356115b2816118e1565b9392505050565b6000602082840312156115cb57600080fd5b81516115b2816118e1565b600080604083850312156115e957600080fd5b82356115f4816118e1565b91506020830135611604816118e1565b809150509250929050565b60008060006060848603121561162457600080fd5b833561162f816118e1565b9250602084013561163f816118e1565b929592945050506040919091013590565b6000806040838503121561166357600080fd5b823561166e816118e1565b946020939093013593505050565b60006020828403121561168e57600080fd5b815180151581146115b257600080fd5b600080600080600080600080610100898b0312156116bb57600080fd5b883567ffffffffffffffff808211156116d357600080fd5b6116df8c838d01611508565b995060208b01359150808211156116f557600080fd5b506117028b828c01611508565b97505060408901359550606089013561171a816118e1565b9450608089013561172a816118e1565b979a969950949793969560a0850135955060c08501359460e001359350915050565b600060208083528351808285015260005b818110156117795785810183015185820160400152820161175d565b8181111561178b576000604083870101525b50601f01601f1916929092016040019392505050565b6020808252602e908201527f496e697469616c697a61626c653a20636f6e747261637420697320616c72656160408201527f647920696e697469616c697a6564000000000000000000000000000000000000606082015260800190565b60008219821115611811576118116118af565b500190565b6000826118365760e060020a634e487b7102600052601260045260246000fd5b500490565b6000816000190483118215151615611855576118556118af565b500290565b60008282101561186c5761186c6118af565b500390565b60028104600182168061188557607f821691505b602082108114156118a95760e060020a634e487b7102600052602260045260246000fd5b50919050565b60e060020a634e487b7102600052601160045260246000fd5b60e060020a634e487b7102600052604160045260246000fd5b600160a060020a038116811461138d57600080fdfea26469706673582212207c089c09f60acab516cbebae1e648d194fb024be10d648bd5b705b5297997ea264736f6c63430008060033",
  "immutableReferences": {},
  "source": "// SPDX-License-Identifier: MIT\r\n\r\npragma solidity 0.8.6;\r\nimport \"@openzeppelin/contracts-upgradeable/token/ERC20/ERC20Upgradeable.sol\";\r\nimport \"./GAX_FNFT.sol\";\r\nimport \"./proxy/Singleton.sol\";\r\n\r\ncontract GAX_Artbits is Singleton, ERC20Upgradeable {\r\n    uint256 nftId;\r\n    uint256 dex_rp;\r\n    uint256 p2p_rp;\r\n    uint256 no_of_artbits;\r\n\r\n    address nftOwner;\r\n\r\n    bool isAssetUpdate;\r\n\r\n    GAX_FNFT public gaxInstance;\r\n\r\n    event TransferFromCalled(address sender, address receiver, uint256 amount);\r\n\r\n    constructor() initializer {}\r\n\r\n    function initialize(\r\n        string memory _name,\r\n        string memory _symbol,\r\n        uint256 _initialSupply,\r\n        address _gaxAdmin,\r\n        address _gaxAddress,\r\n        uint256 _tokenId,\r\n        uint256 _dex_rp,\r\n        uint256 _p2p_rp\r\n    ) public initializer returns (bool) {\r\n        __ERC20_init(_name, _symbol);\r\n        _mint(_gaxAdmin, _initialSupply);\r\n        gaxInstance = GAX_FNFT(_gaxAddress);\r\n        setArtbitAsset(\r\n            _tokenId,\r\n            _gaxAdmin,\r\n            _dex_rp,\r\n            _p2p_rp,\r\n            _initialSupply\r\n        );\r\n        return true;\r\n    }\r\n\r\n    modifier onlyAdmin() {\r\n        require(msg.sender == gaxInstance.gaxAdmin(), \"Caller is not Admin.\");\r\n        _;\r\n    }\r\n\r\n    modifier onlySuperAdmin() {\r\n        require(msg.sender == gaxInstance.superAdmin(), \"Unauthorized.\");\r\n        _;\r\n    }\r\n\r\n    modifier onlyNFT() {\r\n        require(msg.sender == address(gaxInstance), \"unauthorized\");\r\n        _;\r\n    }\r\n\r\n    function setArtbitAsset(\r\n        uint256 _nftId,\r\n        address _nftOwner,\r\n        uint256 _dex_rp,\r\n        uint256 _p2p_rp,\r\n        uint256 _artbits\r\n    ) internal  {\r\n        require(!isAssetUpdate, \"Asset already updated\");\r\n        nftId = _nftId;\r\n        nftOwner = _nftOwner;\r\n        dex_rp = _dex_rp;\r\n        p2p_rp = _p2p_rp;\r\n        no_of_artbits = _artbits;\r\n        isAssetUpdate = true;\r\n    }\r\n\r\n    function transfer(address recipient, uint256 amount)\r\n        public\r\n        virtual\r\n        override\r\n        returns (bool)\r\n    {\r\n        transferArtbits(_msgSender(), recipient, amount);\r\n        return true;\r\n    }\r\n\r\n    function transferFrom(\r\n        address sender,\r\n        address recipient,\r\n        uint256 amount\r\n    ) public virtual override returns (bool) {\r\n        uint256 currentAllowance = allowance(sender,recipient);\r\n        require(\r\n            currentAllowance >= amount,\r\n            \"ERC20: transfer amount exceeds allowance\"\r\n        );\r\n        transferArtbits(sender, recipient, amount);\r\n        unchecked {\r\n            _approve(sender, _msgSender(), currentAllowance - amount);\r\n        }\r\n        emit TransferFromCalled(sender, recipient, amount);\r\n        return true;\r\n    }\r\n\r\n    function transferPlatform(\r\n        address sender,\r\n        address recipient,\r\n        uint256 amount\r\n    ) public onlyNFT returns (bool) {\r\n        transferArtbits(sender, recipient, amount);\r\n        return true;\r\n    }\r\n\r\n    function transferArtbits(\r\n        address sender,\r\n        address recipient,\r\n        uint256 amount\r\n    ) internal virtual {\r\n        uint256 transferAmount;\r\n        address gaxAdmin = gaxInstance.gaxAdmin();\r\n        // whitelist transaction no commission fee\r\n        if (\r\n            gaxInstance.isWhitelisted(sender) ||\r\n            gaxInstance.isWhitelisted(recipient) ||\r\n            recipient == gaxAdmin ||\r\n            sender == gaxAdmin\r\n        ) {\r\n            transferAmount = amount;\r\n        }\r\n        // DEX transaction NFT_Asset owner receive royalty\r\n        else if (\r\n            gaxInstance.isDexAddress(sender) ||\r\n            gaxInstance.isDexAddress(recipient)\r\n        ) {\r\n            uint256 royalty_amt = (dex_rp * amount) / 10000; // admin royalty amt\r\n            _transfer(sender, nftOwner, royalty_amt);\r\n            gaxInstance.addRoyaltyAmt(royalty_amt, nftId); // add royalty amount to NFT_Asset owner wallet\r\n\r\n            transferAmount = amount - royalty_amt; // AB sent to client\r\n        } else {\r\n            uint256 commission = (p2p_rp * amount) / 10000; // admin commission amt\r\n            _transfer(sender, nftOwner, commission);\r\n\r\n            transferAmount = amount - commission; // AB sent to client\r\n            gaxInstance.addCommissionAmt(commission, nftId); // add commission amount to NFT_Asset owner wallet            \r\n        }\r\n        _transfer(sender, recipient, transferAmount);\r\n        emit Transfer(sender, recipient, amount);\r\n\r\n        _afterTokenTransfer(sender, recipient, amount);\r\n    }\r\n\r\n    function decimals() public view virtual override returns (uint8) {\r\n        return 0;\r\n    }\r\n\r\n     function upgradeSingleton(address _singleton) external onlySuperAdmin {\r\n        singleton = _singleton;\r\n    }\r\n}\r\n",
  "sourcePath": "C:\\ACCUBITS\\PROJECT\\GAE\\workouts\\gae-blockchain\\contracts\\GAX_Artbits.sol",
  "compiler": {
    "name": "solc",
    "version": "0.8.6+commit.11564f7e.Emscripten.clang"
  },
  "schemaVersion": "3.4.3",
  "updatedAt": "2022-08-19T10:05:40.737Z",
  "networkType": "ethereum",
  "devdoc": {
    "kind": "dev",
    "methods": {
      "allowance(address,address)": {
        "details": "See {IERC20-allowance}."
      },
      "approve(address,uint256)": {
        "details": "See {IERC20-approve}. Requirements: - `spender` cannot be the zero address."
      },
      "balanceOf(address)": {
        "details": "See {IERC20-balanceOf}."
      },
      "decimals()": {
        "details": "Returns the number of decimals used to get its user representation. For example, if `decimals` equals `2`, a balance of `505` tokens should be displayed to a user as `5.05` (`505 / 10 ** 2`). Tokens usually opt for a value of 18, imitating the relationship between Ether and Wei. This is the value {ERC20} uses, unless this function is overridden; NOTE: This information is only used for _display_ purposes: it in no way affects any of the arithmetic of the contract, including {IERC20-balanceOf} and {IERC20-transfer}."
      },
      "decreaseAllowance(address,uint256)": {
        "details": "Atomically decreases the allowance granted to `spender` by the caller. This is an alternative to {approve} that can be used as a mitigation for problems described in {IERC20-approve}. Emits an {Approval} event indicating the updated allowance. Requirements: - `spender` cannot be the zero address. - `spender` must have allowance for the caller of at least `subtractedValue`."
      },
      "increaseAllowance(address,uint256)": {
        "details": "Atomically increases the allowance granted to `spender` by the caller. This is an alternative to {approve} that can be used as a mitigation for problems described in {IERC20-approve}. Emits an {Approval} event indicating the updated allowance. Requirements: - `spender` cannot be the zero address."
      },
      "name()": {
        "details": "Returns the name of the token."
      },
      "symbol()": {
        "details": "Returns the symbol of the token, usually a shorter version of the name."
      },
      "totalSupply()": {
        "details": "See {IERC20-totalSupply}."
      },
      "transfer(address,uint256)": {
        "details": "See {IERC20-transfer}. Requirements: - `recipient` cannot be the zero address. - the caller must have a balance of at least `amount`."
      },
      "transferFrom(address,address,uint256)": {
        "details": "See {IERC20-transferFrom}. Emits an {Approval} event indicating the updated allowance. This is not required by the EIP. See the note at the beginning of {ERC20}. Requirements: - `sender` and `recipient` cannot be the zero address. - `sender` must have a balance of at least `amount`. - the caller must have allowance for ``sender``'s tokens of at least `amount`."
      }
    },
    "version": 1
  },
  "userdoc": {
    "kind": "user",
    "methods": {},
    "version": 1
  }
}