{
  "contractName": "GAX_FNFT",
  "abi": [
    {
      "anonymous": false,
      "inputs": [
        {
          "indexed": true,
          "internalType": "address",
          "name": "owner",
          "type": "address"
        },
        {
          "indexed": true,
          "internalType": "address",
          "name": "approved",
          "type": "address"
        },
        {
          "indexed": true,
          "internalType": "uint256",
          "name": "tokenId",
          "type": "uint256"
        }
      ],
      "name": "Approval",
      "type": "event"
    },
    {
      "anonymous": false,
      "inputs": [
        {
          "indexed": true,
          "internalType": "address",
          "name": "owner",
          "type": "address"
        },
        {
          "indexed": true,
          "internalType": "address",
          "name": "operator",
          "type": "address"
        },
        {
          "indexed": false,
          "internalType": "bool",
          "name": "approved",
          "type": "bool"
        }
      ],
      "name": "ApprovalForAll",
      "type": "event"
    },
    {
      "anonymous": false,
      "inputs": [
        {
          "indexed": false,
          "internalType": "address",
          "name": "sender",
          "type": "address"
        },
        {
          "indexed": false,
          "internalType": "address",
          "name": "recepient",
          "type": "address"
        },
        {
          "indexed": false,
          "internalType": "uint256",
          "name": "assetId",
          "type": "uint256"
        },
        {
          "indexed": false,
          "internalType": "uint256",
          "name": "amount",
          "type": "uint256"
        }
      ],
      "name": "ArtbitTransferred",
      "type": "event"
    },
    {
      "anonymous": false,
      "inputs": [
        {
          "indexed": true,
          "internalType": "uint256",
          "name": "tokenId",
          "type": "uint256"
        },
        {
          "indexed": true,
          "internalType": "address",
          "name": "_contractAddress",
          "type": "address"
        },
        {
          "indexed": false,
          "internalType": "string",
          "name": "_uri",
          "type": "string"
        }
      ],
      "name": "ArtbitsMinted",
      "type": "event"
    },
    {
      "anonymous": false,
      "inputs": [
        {
          "indexed": true,
          "internalType": "address",
          "name": "from",
          "type": "address"
        },
        {
          "indexed": true,
          "internalType": "address",
          "name": "to",
          "type": "address"
        },
        {
          "indexed": true,
          "internalType": "uint256",
          "name": "tokenId",
          "type": "uint256"
        }
      ],
      "name": "Transfer",
      "type": "event"
    },
    {
      "inputs": [
        {
          "internalType": "address",
          "name": "to",
          "type": "address"
        },
        {
          "internalType": "uint256",
          "name": "tokenId",
          "type": "uint256"
        }
      ],
      "name": "approve",
      "outputs": [],
      "stateMutability": "nonpayable",
      "type": "function"
    },
    {
      "inputs": [],
      "name": "artbitAddr",
      "outputs": [
        {
          "internalType": "address",
          "name": "",
          "type": "address"
        }
      ],
      "stateMutability": "view",
      "type": "function",
      "constant": true
    },
    {
      "inputs": [
        {
          "internalType": "address",
          "name": "owner",
          "type": "address"
        }
      ],
      "name": "balanceOf",
      "outputs": [
        {
          "internalType": "uint256",
          "name": "",
          "type": "uint256"
        }
      ],
      "stateMutability": "view",
      "type": "function",
      "constant": true
    },
    {
      "inputs": [],
      "name": "dexList_count",
      "outputs": [
        {
          "internalType": "uint256",
          "name": "",
          "type": "uint256"
        }
      ],
      "stateMutability": "view",
      "type": "function",
      "constant": true
    },
    {
      "inputs": [],
      "name": "erc20decimals",
      "outputs": [
        {
          "internalType": "uint256",
          "name": "",
          "type": "uint256"
        }
      ],
      "stateMutability": "view",
      "type": "function",
      "constant": true
    },
    {
      "inputs": [],
      "name": "gaxAdmin",
      "outputs": [
        {
          "internalType": "address",
          "name": "",
          "type": "address"
        }
      ],
      "stateMutability": "view",
      "type": "function",
      "constant": true
    },
    {
      "inputs": [
        {
          "internalType": "uint256",
          "name": "tokenId",
          "type": "uint256"
        }
      ],
      "name": "getApproved",
      "outputs": [
        {
          "internalType": "address",
          "name": "",
          "type": "address"
        }
      ],
      "stateMutability": "view",
      "type": "function",
      "constant": true
    },
    {
      "inputs": [
        {
          "internalType": "address",
          "name": "owner",
          "type": "address"
        },
        {
          "internalType": "address",
          "name": "operator",
          "type": "address"
        }
      ],
      "name": "isApprovedForAll",
      "outputs": [
        {
          "internalType": "bool",
          "name": "",
          "type": "bool"
        }
      ],
      "stateMutability": "view",
      "type": "function",
      "constant": true
    },
    {
      "inputs": [],
      "name": "name",
      "outputs": [
        {
          "internalType": "string",
          "name": "",
          "type": "string"
        }
      ],
      "stateMutability": "view",
      "type": "function",
      "constant": true
    },
    {
      "inputs": [
        {
          "internalType": "uint256",
          "name": "tokenId",
          "type": "uint256"
        }
      ],
      "name": "ownerOf",
      "outputs": [
        {
          "internalType": "address",
          "name": "",
          "type": "address"
        }
      ],
      "stateMutability": "view",
      "type": "function",
      "constant": true
    },
    {
      "inputs": [
        {
          "internalType": "address",
          "name": "from",
          "type": "address"
        },
        {
          "internalType": "address",
          "name": "to",
          "type": "address"
        },
        {
          "internalType": "uint256",
          "name": "tokenId",
          "type": "uint256"
        }
      ],
      "name": "safeTransferFrom",
      "outputs": [],
      "stateMutability": "nonpayable",
      "type": "function"
    },
    {
      "inputs": [
        {
          "internalType": "address",
          "name": "from",
          "type": "address"
        },
        {
          "internalType": "address",
          "name": "to",
          "type": "address"
        },
        {
          "internalType": "uint256",
          "name": "tokenId",
          "type": "uint256"
        },
        {
          "internalType": "bytes",
          "name": "_data",
          "type": "bytes"
        }
      ],
      "name": "safeTransferFrom",
      "outputs": [],
      "stateMutability": "nonpayable",
      "type": "function"
    },
    {
      "inputs": [
        {
          "internalType": "address",
          "name": "operator",
          "type": "address"
        },
        {
          "internalType": "bool",
          "name": "approved",
          "type": "bool"
        }
      ],
      "name": "setApprovalForAll",
      "outputs": [],
      "stateMutability": "nonpayable",
      "type": "function"
    },
    {
      "inputs": [],
      "name": "superAdmin",
      "outputs": [
        {
          "internalType": "address",
          "name": "",
          "type": "address"
        }
      ],
      "stateMutability": "view",
      "type": "function",
      "constant": true
    },
    {
      "inputs": [],
      "name": "symbol",
      "outputs": [
        {
          "internalType": "string",
          "name": "",
          "type": "string"
        }
      ],
      "stateMutability": "view",
      "type": "function",
      "constant": true
    },
    {
      "inputs": [
        {
          "internalType": "address",
          "name": "from",
          "type": "address"
        },
        {
          "internalType": "address",
          "name": "to",
          "type": "address"
        },
        {
          "internalType": "uint256",
          "name": "tokenId",
          "type": "uint256"
        }
      ],
      "name": "transferFrom",
      "outputs": [],
      "stateMutability": "nonpayable",
      "type": "function"
    },
    {
      "inputs": [],
      "name": "whiteList_count",
      "outputs": [
        {
          "internalType": "uint256",
          "name": "",
          "type": "uint256"
        }
      ],
      "stateMutability": "view",
      "type": "function",
      "constant": true
    },
    {
      "inputs": [
        {
          "internalType": "string",
          "name": "_name",
          "type": "string"
        },
        {
          "internalType": "string",
          "name": "_symbol",
          "type": "string"
        },
        {
          "internalType": "string",
          "name": "_BaseUri",
          "type": "string"
        },
        {
          "internalType": "address",
          "name": "_gaxAdmin",
          "type": "address"
        },
        {
          "internalType": "address",
          "name": "_artbitAddr",
          "type": "address"
        }
      ],
      "name": "initialize",
      "outputs": [],
      "stateMutability": "nonpayable",
      "type": "function"
    },
    {
      "inputs": [
        {
          "internalType": "address",
          "name": "_newOwner",
          "type": "address"
        }
      ],
      "name": "changeOwnership",
      "outputs": [],
      "stateMutability": "nonpayable",
      "type": "function"
    },
    {
      "inputs": [
        {
          "internalType": "address",
          "name": "_newAdmin",
          "type": "address"
        }
      ],
      "name": "changeSuperadmin",
      "outputs": [],
      "stateMutability": "nonpayable",
      "type": "function"
    },
    {
      "inputs": [
        {
          "internalType": "address",
          "name": "_newAddress",
          "type": "address"
        }
      ],
      "name": "changeArtbitAddress",
      "outputs": [],
      "stateMutability": "nonpayable",
      "type": "function"
    },
    {
      "inputs": [
        {
          "internalType": "string",
          "name": "_name",
          "type": "string"
        },
        {
          "internalType": "string",
          "name": "_symbol",
          "type": "string"
        },
        {
          "internalType": "uint256",
          "name": "_tokenId",
          "type": "uint256"
        },
        {
          "internalType": "uint256",
          "name": "_dex_rp",
          "type": "uint256"
        },
        {
          "internalType": "uint256",
          "name": "_p2p_rp",
          "type": "uint256"
        },
        {
          "internalType": "uint256",
          "name": "_noOfArtbits",
          "type": "uint256"
        },
        {
          "internalType": "string",
          "name": "_artist",
          "type": "string"
        },
        {
          "internalType": "string",
          "name": "_uri",
          "type": "string"
        }
      ],
      "name": "mintToken",
      "outputs": [],
      "stateMutability": "nonpayable",
      "type": "function"
    },
    {
      "inputs": [
        {
          "internalType": "address",
          "name": "_to",
          "type": "address"
        },
        {
          "internalType": "uint256",
          "name": "_assetId",
          "type": "uint256"
        },
        {
          "internalType": "uint256",
          "name": "_artBits",
          "type": "uint256"
        }
      ],
      "name": "transferToken",
      "outputs": [],
      "stateMutability": "nonpayable",
      "type": "function"
    },
    {
      "inputs": [
        {
          "internalType": "uint256",
          "name": "_nftAssetId",
          "type": "uint256"
        }
      ],
      "name": "getartbitInstance",
      "outputs": [
        {
          "internalType": "contract GAX_Artbits",
          "name": "",
          "type": "address"
        }
      ],
      "stateMutability": "view",
      "type": "function",
      "constant": true
    },
    {
      "inputs": [
        {
          "internalType": "uint256",
          "name": "_nftAssetId",
          "type": "uint256"
        },
        {
          "internalType": "address",
          "name": "userAddr",
          "type": "address"
        }
      ],
      "name": "checkArtbitUserBalance",
      "outputs": [
        {
          "internalType": "uint256",
          "name": "",
          "type": "uint256"
        }
      ],
      "stateMutability": "view",
      "type": "function",
      "constant": true
    },
    {
      "inputs": [],
      "name": "getTotCommissionAmt",
      "outputs": [
        {
          "internalType": "uint256",
          "name": "",
          "type": "uint256"
        }
      ],
      "stateMutability": "view",
      "type": "function",
      "constant": true
    },
    {
      "inputs": [
        {
          "internalType": "uint256",
          "name": "amt",
          "type": "uint256"
        },
        {
          "internalType": "uint256",
          "name": "tokenId",
          "type": "uint256"
        }
      ],
      "name": "addCommissionAmt",
      "outputs": [],
      "stateMutability": "nonpayable",
      "type": "function"
    },
    {
      "inputs": [],
      "name": "getTotRoyaltyAmt",
      "outputs": [
        {
          "internalType": "uint256",
          "name": "",
          "type": "uint256"
        }
      ],
      "stateMutability": "view",
      "type": "function",
      "constant": true
    },
    {
      "inputs": [
        {
          "internalType": "uint256",
          "name": "amt",
          "type": "uint256"
        },
        {
          "internalType": "uint256",
          "name": "tokenId",
          "type": "uint256"
        }
      ],
      "name": "addRoyaltyAmt",
      "outputs": [],
      "stateMutability": "nonpayable",
      "type": "function"
    },
    {
      "inputs": [
        {
          "internalType": "address",
          "name": "_whiteListAddr",
          "type": "address"
        }
      ],
      "name": "addWhiteListAddresses",
      "outputs": [],
      "stateMutability": "nonpayable",
      "type": "function"
    },
    {
      "inputs": [
        {
          "internalType": "address",
          "name": "_whiteListAddr",
          "type": "address"
        }
      ],
      "name": "removeWhiteListAddresses",
      "outputs": [],
      "stateMutability": "nonpayable",
      "type": "function"
    },
    {
      "inputs": [
        {
          "internalType": "address",
          "name": "_whitelistedAddr",
          "type": "address"
        }
      ],
      "name": "isWhitelisted",
      "outputs": [
        {
          "internalType": "bool",
          "name": "",
          "type": "bool"
        }
      ],
      "stateMutability": "view",
      "type": "function",
      "constant": true
    },
    {
      "inputs": [
        {
          "internalType": "address",
          "name": "_dexAddr",
          "type": "address"
        }
      ],
      "name": "addDexAddresses",
      "outputs": [],
      "stateMutability": "nonpayable",
      "type": "function"
    },
    {
      "inputs": [
        {
          "internalType": "address",
          "name": "_dexAddr",
          "type": "address"
        }
      ],
      "name": "removeDexAddresses",
      "outputs": [],
      "stateMutability": "nonpayable",
      "type": "function"
    },
    {
      "inputs": [
        {
          "internalType": "address",
          "name": "_dexAddress",
          "type": "address"
        }
      ],
      "name": "isDexAddress",
      "outputs": [
        {
          "internalType": "bool",
          "name": "",
          "type": "bool"
        }
      ],
      "stateMutability": "view",
      "type": "function",
      "constant": true
    },
    {
      "inputs": [
        {
          "internalType": "uint256",
          "name": "tokenId",
          "type": "uint256"
        }
      ],
      "name": "tokenURI",
      "outputs": [
        {
          "internalType": "string",
          "name": "",
          "type": "string"
        }
      ],
      "stateMutability": "view",
      "type": "function",
      "constant": true
    },
    {
      "inputs": [
        {
          "internalType": "bytes4",
          "name": "interfaceId",
          "type": "bytes4"
        }
      ],
      "name": "supportsInterface",
      "outputs": [
        {
          "internalType": "bool",
          "name": "",
          "type": "bool"
        }
      ],
      "stateMutability": "view",
      "type": "function",
      "constant": true
    }
  ],
  "bytecode": "0x608060405234801561001057600080fd5b50613199806100206000396000f3fe60806040523480156200001157600080fd5b506004361062000272576000357c0100000000000000000000000000000000000000000000000000000000900480635fe1105e11620001665780639fa2a03011620000e4578063c8952bb311620000a3578063c8952bb31462000589578063c90fca431462000593578063d33850da146200059d578063d6d0faee14620005b4578063e985e9c514620005cb57600080fd5b80639fa2a0301462000524578063a22cb465146200052d578063b88d4fde1462000544578063b8db08c0146200055b578063c87b56dd146200057257600080fd5b806384a81328116200013157806384a8132814620004c15780638644182f14620004d85780638d41af0214620004ec57806395d89b4114620005035780639b04d600146200050d57600080fd5b80635fe1105e14620004685780636352211e146200047c57806370a082311462000493578063837be8c014620004aa57600080fd5b80632af4c31e11620001f45780633af32abf11620001bf5780633af32abf14620003c557806342842e0e14620003f4578063432a4331146200040b57806351b9001914620004225780635b60d374146200045157600080fd5b80632af4c31e14620003765780632b60aff7146200038d5780632d9432e914620003975780632e1faf7514620003ae57600080fd5b8063095ea7b31162000241578063095ea7b314620003125780630e6cec82146200032b57806311076510146200034257806323b872dd146200034b57806329575f6a146200036257600080fd5b806301ffc9a714620002775780630488951614620002a357806306fdde0314620002c9578063081812fc14620002e2575b600080fd5b6200028e6200028836600462002876565b6200060a565b60405190151581526020015b60405180910390f35b620002ba620002b436600462002a83565b6200061d565b6040519081526020016200029a565b620002d3620007ac565b6040516200029a919062002c01565b620002f9620002f336600462002a4f565b62000846565b604051600160a060020a0390911681526020016200029a565b6200032962000323366004620027f3565b620008f5565b005b620003296200033c3660046200269b565b62000a38565b609d54620002ba565b620003296200035c366004620026f1565b62000ae5565b609854620002f990600160a060020a031681565b62000329620003873660046200269b565b62000b20565b620002ba609c5481565b62000329620003a83660046200269b565b62000b9e565b62000329620003bf36600462002820565b62000c74565b6200028e620003d63660046200269b565b600160a060020a0316600090815260a2602052604090205460ff1690565b6200032962000405366004620026f1565b62000db1565b620003296200041c36600462002aa9565b62000dce565b6200028e620004333660046200269b565b600160a060020a0316600090815260a3602052604090205460ff1690565b620003296200046236600462002aa9565b62000e5e565b609954620002f990600160a060020a031681565b620002f96200048d36600462002a4f565b62000ee3565b620002ba620004a43660046200269b565b62000f73565b62000329620004bb3660046200269b565b62001012565b62000329620004d23660046200269b565b620010ea565b609a54620002f990600160a060020a031681565b62000329620004fd3660046200296e565b620011c0565b620002d362001392565b620002f96200051e36600462002a4f565b620013a3565b609e54620002ba565b620003296200053e366004620027b7565b62001494565b620003296200055536600462002732565b6200155e565b620003296200056c3660046200269b565b620015a0565b620002d36200058336600462002a4f565b6200164d565b620002ba609b5481565b620002ba609f5481565b62000329620005ae3660046200269b565b620017f2565b62000329620005c5366004620028b6565b620018ca565b6200028e620005dc366004620026b9565b600160a060020a039182166000908152606a6020908152604080832093909416825291909152205460ff1690565b60006200061782620019b5565b92915050565b600082815260a0602090815260408083208151608081018352815481526001820154600160a060020a03908116948201949094526002820154909316918301919091526003810180548493929160608401916200067a9062002e96565b80601f0160208091040260200160405190810160405280929190818152602001828054620006a89062002e96565b8015620006f95780601f10620006cd57610100808354040283529160200191620006f9565b820191906000526020600020905b815481529060010190602001808311620006db57829003601f168201915b5050509190925250505060408181015190517f70a08231000000000000000000000000000000000000000000000000000000008152600160a060020a03868116600483015292935090918216906370a082319060240160206040518083038186803b1580156200076857600080fd5b505afa1580156200077d573d6000803e3d6000fd5b505050506040513d601f19601f82011682018060405250810190620007a3919062002a69565b95945050505050565b606060658054620007bd9062002e96565b80601f0160208091040260200160405190810160405280929190818152602001828054620007eb9062002e96565b80156200083c5780601f1062000810576101008083540402835291602001916200083c565b820191906000526020600020905b8154815290600101906020018083116200081e57829003601f168201915b5050505050905090565b600081815260676020526040812054600160a060020a0316620008d95760405160e560020a62461bcd02815260206004820152602c60248201527f4552433732313a20617070726f76656420717565727920666f72206e6f6e657860448201527f697374656e7420746f6b656e000000000000000000000000000000000000000060648201526084015b60405180910390fd5b50600090815260696020526040902054600160a060020a031690565b6000620009028262000ee3565b905080600160a060020a031683600160a060020a03161415620009915760405160e560020a62461bcd02815260206004820152602160248201527f4552433732313a20617070726f76616c20746f2063757272656e74206f776e6560448201527f72000000000000000000000000000000000000000000000000000000000000006064820152608401620008d0565b33600160a060020a0382161480620009b05750620009b08133620005dc565b62000a275760405160e560020a62461bcd02815260206004820152603860248201527f4552433732313a20617070726f76652063616c6c6572206973206e6f74206f7760448201527f6e6572206e6f7220617070726f76656420666f7220616c6c00000000000000006064820152608401620008d0565b62000a33838362001a53565b505050565b609854600160a060020a0316331462000a975760405160e560020a62461bcd02815260206004820152601a60248201527f43616c6c6572206973206e6f742053757065722041646d696e2e0000000000006044820152606401620008d0565b600160a060020a03811662000ac35760405160e560020a62461bcd028152600401620008d09062002d6d565b60988054600160a060020a031916600160a060020a0392909216919091179055565b62000af1338262001ac3565b62000b135760405160e560020a62461bcd028152600401620008d09062002da4565b62000a3383838362001bd6565b609954600160a060020a0316331462000b505760405160e560020a62461bcd028152600401620008d09062002d36565b600160a060020a03811662000b7c5760405160e560020a62461bcd028152600401620008d09062002d6d565b60998054600160a060020a031916600160a060020a0392909216919091179055565b609954600160a060020a0316331462000bce5760405160e560020a62461bcd028152600401620008d09062002d36565b600160a060020a038116600090815260a2602052604090205460ff161562000c3c5760405160e560020a62461bcd02815260206004820152601860248201527f41646472657373206e6f742077686974656c69737465642e00000000000000006044820152606401620008d0565b609b805490600062000c4e8362002e7c565b9091555050600160a060020a0316600090815260a260205260409020805460ff19169055565b609954600160a060020a0316331462000ca45760405160e560020a62461bcd028152600401620008d09062002d36565b600062000cb183620013a3565b6040517fce1c61b6000000000000000000000000000000000000000000000000000000008152336004820152600160a060020a038681166024830152604482018590529192509082169063ce1c61b690606401602060405180830381600087803b15801562000d1f57600080fd5b505af115801562000d34573d6000803e3d6000fd5b505050506040513d601f19601f8201168201806040525081019062000d5a919062002856565b5060408051338152600160a060020a0386166020820152908101849052606081018390527f80e6e712b94e096c28939b533adbc39ce7e99090b54946e05700e1a614dad1869060800160405180910390a150505050565b62000a33838383604051806020016040528060008152506200155e565b600081815260a060205260409020600201548190600160a060020a031633811462000e3f5760405160e560020a62461bcd02815260206004820152600c60248201527f756e617574686f72697a656400000000000000000000000000000000000000006044820152606401620008d0565b83609d600082825462000e53919062002e01565b909155505050505050565b600081815260a060205260409020600201548190600160a060020a031633811462000ecf5760405160e560020a62461bcd02815260206004820152600c60248201527f756e617574686f72697a656400000000000000000000000000000000000000006044820152606401620008d0565b83609e600082825462000e53919062002e01565b600081815260676020526040812054600160a060020a031680620006175760405160e560020a62461bcd02815260206004820152602960248201527f4552433732313a206f776e657220717565727920666f72206e6f6e657869737460448201527f656e7420746f6b656e00000000000000000000000000000000000000000000006064820152608401620008d0565b6000600160a060020a03821662000ff65760405160e560020a62461bcd02815260206004820152602a60248201527f4552433732313a2062616c616e636520717565727920666f7220746865207a6560448201527f726f2061646472657373000000000000000000000000000000000000000000006064820152608401620008d0565b50600160a060020a031660009081526068602052604090205490565b609954600160a060020a03163314620010425760405160e560020a62461bcd028152600401620008d09062002d36565b600160a060020a038116600090815260a2602052604090205460ff16620010af5760405160e560020a62461bcd02815260206004820152601c60248201527f4164647265737320616c72656164792077686974656c69737465642e000000006044820152606401620008d0565b609b8054906000620010c18362002ed6565b9091555050600160a060020a0316600090815260a260205260409020805460ff19166001179055565b609954600160a060020a031633146200111a5760405160e560020a62461bcd028152600401620008d09062002d36565b600160a060020a038116600090815260a3602052604090205460ff1615620011885760405160e560020a62461bcd02815260206004820152601960248201527f41646472657373206e6f74206164646564206173204465782e000000000000006044820152606401620008d0565b609c80549060006200119a8362002e7c565b9091555050600160a060020a0316600090815260a360205260409020805460ff19169055565b609954600160a060020a03163314620011f05760405160e560020a62461bcd028152600401620008d09062002d36565b6099546200120890600160a060020a03168762001db5565b62001214868262001dd5565b609a54609954604051600092620012af92600160a060020a039182169262001251928e928e928b929091169030908f908f908f9060240162002c16565b60408051601f198184030181529190526020810180517bffffffffffffffffffffffffffffffffffffffffffffffffffffffff167f661940700000000000000000000000000000000000000000000000000000000017905262001e8f565b60408051608081018252898152609954600160a060020a039081166020808401918252828616848601908152606085018a815260008f815260a0845296909620855181559251600184018054918616600160a060020a03199283161790559051600284018054919095169116179092559251805194955091938493926200133e92600385019291019062002523565b5090505081600160a060020a0316887f64c2f4b0a0bf842e8d75e95596f1fabedf994b6556bf6624e7fb1f2d95fa456f856040516200137e919062002c01565b60405180910390a350505050505050505050565b606060668054620007bd9062002e96565b600081815260a0602090815260408083208151608081018352815481526001820154600160a060020a0390811694820194909452600282015490931691830191909152600381018054849392916060840191620014009062002e96565b80601f01602080910402602001604051908101604052809291908181526020018280546200142e9062002e96565b80156200147f5780601f1062001453576101008083540402835291602001916200147f565b820191906000526020600020905b8154815290600101906020018083116200146157829003601f168201915b50505091909252505050604001519392505050565b600160a060020a038216331415620014f25760405160e560020a62461bcd02815260206004820152601960248201527f4552433732313a20617070726f766520746f2063616c6c6572000000000000006044820152606401620008d0565b336000818152606a60209081526040808320600160a060020a03871680855290835292819020805460ff191686151590811790915590519081529192917f17307eab39ab6107e8899845ad3d59bd9653f200f220920489ca2b5937696c31910160405180910390a35050565b6200156a338362001ac3565b6200158c5760405160e560020a62461bcd028152600401620008d09062002da4565b6200159a8484848462001ef5565b50505050565b609854600160a060020a03163314620015ff5760405160e560020a62461bcd02815260206004820152601a60248201527f43616c6c6572206973206e6f742053757065722041646d696e2e0000000000006044820152606401620008d0565b600160a060020a0381166200162b5760405160e560020a62461bcd028152600401620008d09062002d6d565b609a8054600160a060020a031916600160a060020a0392909216919091179055565b600081815260676020526040902054606090600160a060020a0316620016df5760405160e560020a62461bcd02815260206004820152602f60248201527f4552433732314d657461646174613a2055524920717565727920666f72206e6f60448201527f6e6578697374656e7420746f6b656e00000000000000000000000000000000006064820152608401620008d0565b600082815260a1602052604081208054620016fa9062002e96565b80601f0160208091040260200160405190810160405280929190818152602001828054620017289062002e96565b8015620017795780601f106200174d5761010080835404028352916020019162001779565b820191906000526020600020905b8154815290600101906020018083116200175b57829003601f168201915b50505050509050609780546200178f9062002e96565b151590506200179e5792915050565b8051620017dc576097620017b28462001f32565b604051602001620017c592919062002b18565b604051602081830303815290604052915050919050565b609781604051602001620017c592919062002b18565b609954600160a060020a03163314620018225760405160e560020a62461bcd028152600401620008d09062002d36565b600160a060020a038116600090815260a3602052604090205460ff166200188f5760405160e560020a62461bcd02815260206004820152601d60248201527f4164647265737320616c7265616479206164646564206173204465782e0000006044820152606401620008d0565b609c8054906000620018a18362002ed6565b9091555050600160a060020a0316600090815260a360205260409020805460ff19166001179055565b600054610100900460ff1680620018e4575060005460ff16155b620019065760405160e560020a62461bcd028152600401620008d09062002cd9565b600054610100900460ff1615801562001929576000805461ffff19166101011790555b6200193586866200209b565b6200193f62002131565b6200194962002131565b83516200195e90609790602087019062002523565b5060998054600160a060020a03808616600160a060020a031992831617909255609a80549285169282169290921790915560988054909116331790558015620019ad576000805461ff00191690555b505050505050565b6000600160e060020a031982167f80ac58cd00000000000000000000000000000000000000000000000000000000148062001a195750600160e060020a031982167f5b5e139f00000000000000000000000000000000000000000000000000000000145b806200061757507f01ffc9a700000000000000000000000000000000000000000000000000000000600160e060020a031983161462000617565b60008181526069602052604090208054600160a060020a031916600160a060020a038416908117909155819062001a8a8262000ee3565b600160a060020a03167f8c5be1e5ebec7d5bd14f71427d1e84f3dd0314c0f7b2291e5b200ac8c7c3b92560405160405180910390a45050565b600081815260676020526040812054600160a060020a031662001b525760405160e560020a62461bcd02815260206004820152602c60248201527f4552433732313a206f70657261746f7220717565727920666f72206e6f6e657860448201527f697374656e7420746f6b656e00000000000000000000000000000000000000006064820152608401620008d0565b600062001b5f8362000ee3565b905080600160a060020a031684600160a060020a0316148062001b9d575083600160a060020a031662001b928462000846565b600160a060020a0316145b8062001bce5750600160a060020a038082166000908152606a602090815260408083209388168352929052205460ff165b949350505050565b82600160a060020a031662001beb8262000ee3565b600160a060020a03161462001c6c5760405160e560020a62461bcd02815260206004820152602960248201527f4552433732313a207472616e73666572206f6620746f6b656e2074686174206960448201527f73206e6f74206f776e00000000000000000000000000000000000000000000006064820152608401620008d0565b600160a060020a03821662001cec5760405160e560020a62461bcd028152602060048201526024808201527f4552433732313a207472616e7366657220746f20746865207a65726f2061646460448201527f72657373000000000000000000000000000000000000000000000000000000006064820152608401620008d0565b62001cf960008262001a53565b600160a060020a038316600090815260686020526040812080546001929062001d2490849062002e33565b9091555050600160a060020a038216600090815260686020526040812080546001929062001d5490849062002e01565b90915550506000818152606760205260408082208054600160a060020a031916600160a060020a0386811691821790925591518493918716917fddf252ad1be2c89b69c2b068fc378daa952ba7f163c4a11628f55a4df523b3ef91a4505050565b62001dd1828260405180602001604052806000815250620021a6565b5050565b600082815260676020526040902054600160a060020a031662001e645760405160e560020a62461bcd02815260206004820152602c60248201527f4552433732314d657461646174613a2055524920736574206f66206e6f6e657860448201527f697374656e7420746f6b656e00000000000000000000000000000000000000006064820152608401620008d0565b805181901562000a3357600083815260a16020908152604090912083516200159a9285019062002523565b60008260405162001ea090620025b2565b600160a060020a039091168152602001604051809103906000f08015801562001ecd573d6000803e3d6000fd5b50825190915015620006175760008060008451602086016000865af114156200061757600080fd5b62001f0284848462001bd6565b62001f1084848484620021e3565b6200159a5760405160e560020a62461bcd028152600401620008d09062002c7c565b60608162001f7357505060408051808201909152600181527f3000000000000000000000000000000000000000000000000000000000000000602082015290565b8160005b811562001fa3578062001f8a8162002ed6565b915062001f9b9050600a8362002e1c565b915062001f77565b60008167ffffffffffffffff81111562001fc15762001fc162002f56565b6040519080825280601f01601f19166020018201604052801562001fec576020820181803683370190505b5090505b841562001bce576200200460018362002e33565b915062002013600a8662002ef4565b6200202090603062002e01565b7f01000000000000000000000000000000000000000000000000000000000000000281838151811062002057576200205762002f3d565b60200101907effffffffffffffffffffffffffffffffffffffffffffffffffffffffffffff1916908160001a90535062002093600a8662002e1c565b945062001ff0565b600054610100900460ff1680620020b5575060005460ff16155b620020d75760405160e560020a62461bcd028152600401620008d09062002cd9565b600054610100900460ff16158015620020fa576000805461ffff19166101011790555b6200210462002131565b6200210e62002131565b6200211a838362002333565b801562000a33576000805461ff0019169055505050565b600054610100900460ff16806200214b575060005460ff16155b6200216d5760405160e560020a62461bcd028152600401620008d09062002cd9565b600054610100900460ff1615801562002190576000805461ffff19166101011790555b8015620021a3576000805461ff00191690555b50565b620021b28383620023d5565b620021c16000848484620021e3565b62000a335760405160e560020a62461bcd028152600401620008d09062002c7c565b6000600160a060020a0384163b1562002328576040517f150b7a02000000000000000000000000000000000000000000000000000000008152600160a060020a0385169063150b7a02906200224390339089908890889060040162002bc3565b602060405180830381600087803b1580156200225e57600080fd5b505af192505050801562002291575060408051601f3d908101601f191682019092526200228e9181019062002896565b60015b620022f4573d808015620022c2576040519150601f19603f3d011682016040523d82523d6000602084013e620022c7565b606091505b508051620022ec5760405160e560020a62461bcd028152600401620008d09062002c7c565b805181602001fd5b600160e060020a0319167f150b7a020000000000000000000000000000000000000000000000000000000014905062001bce565b506001949350505050565b600054610100900460ff16806200234d575060005460ff16155b6200236f5760405160e560020a62461bcd028152600401620008d09062002cd9565b600054610100900460ff1615801562002392576000805461ffff19166101011790555b8251620023a790606590602086019062002523565b508151620023bd90606690602085019062002523565b50801562000a33576000805461ff0019169055505050565b600160a060020a038216620024305760405160e560020a62461bcd02815260206004820181905260248201527f4552433732313a206d696e7420746f20746865207a65726f20616464726573736044820152606401620008d0565b600081815260676020526040902054600160a060020a0316156200249a5760405160e560020a62461bcd02815260206004820152601c60248201527f4552433732313a20746f6b656e20616c7265616479206d696e746564000000006044820152606401620008d0565b600160a060020a0382166000908152606860205260408120805460019290620024c590849062002e01565b90915550506000818152606760205260408082208054600160a060020a031916600160a060020a03861690811790915590518392907fddf252ad1be2c89b69c2b068fc378daa952ba7f163c4a11628f55a4df523b3ef908290a45050565b828054620025319062002e96565b90600052602060002090601f016020900481019282620025555760008555620025a0565b82601f106200257057805160ff1916838001178555620025a0565b82800160010185558215620025a0579182015b82811115620025a057825182559160200191906001019062002583565b50620025ae929150620025c0565b5090565b6101ce8062002f9683390190565b5b80821115620025ae5760008155600101620025c1565b600067ffffffffffffffff80841115620025f557620025f562002f56565b604051601f8501601f19908116603f0116810190828211818310171562002620576200262062002f56565b816040528093508581528686860111156200263a57600080fd5b858560208301376000602087830101525050509392505050565b8035600160a060020a03811681146200266c57600080fd5b919050565b600082601f8301126200268357600080fd5b6200269483833560208501620025d7565b9392505050565b600060208284031215620026ae57600080fd5b620026948262002654565b60008060408385031215620026cd57600080fd5b620026d88362002654565b9150620026e86020840162002654565b90509250929050565b6000806000606084860312156200270757600080fd5b620027128462002654565b9250620027226020850162002654565b9150604084013590509250925092565b600080600080608085870312156200274957600080fd5b620027548562002654565b9350620027646020860162002654565b925060408501359150606085013567ffffffffffffffff8111156200278857600080fd5b8501601f810187136200279a57600080fd5b620027ab87823560208401620025d7565b91505092959194509250565b60008060408385031215620027cb57600080fd5b620027d68362002654565b91506020830135620027e88162002f6f565b809150509250929050565b600080604083850312156200280757600080fd5b620028128362002654565b946020939093013593505050565b6000806000606084860312156200283657600080fd5b620028418462002654565b95602085013595506040909401359392505050565b6000602082840312156200286957600080fd5b8151620026948162002f6f565b6000602082840312156200288957600080fd5b8135620026948162002f7e565b600060208284031215620028a957600080fd5b8151620026948162002f7e565b600080600080600060a08688031215620028cf57600080fd5b853567ffffffffffffffff80821115620028e857600080fd5b620028f689838a0162002671565b965060208801359150808211156200290d57600080fd5b6200291b89838a0162002671565b955060408801359150808211156200293257600080fd5b50620029418882890162002671565b935050620029526060870162002654565b9150620029626080870162002654565b90509295509295909350565b600080600080600080600080610100898b0312156200298c57600080fd5b883567ffffffffffffffff80821115620029a557600080fd5b620029b38c838d0162002671565b995060208b0135915080821115620029ca57600080fd5b620029d88c838d0162002671565b985060408b0135975060608b0135965060808b0135955060a08b0135945060c08b013591508082111562002a0b57600080fd5b62002a198c838d0162002671565b935060e08b013591508082111562002a3057600080fd5b5062002a3f8b828c0162002671565b9150509295985092959890939650565b60006020828403121562002a6257600080fd5b5035919050565b60006020828403121562002a7c57600080fd5b5051919050565b6000806040838503121562002a9757600080fd5b82359150620026e86020840162002654565b6000806040838503121562002abd57600080fd5b50508035926020909101359150565b6000815180845262002ae681602086016020860162002e4d565b601f01601f19169290920160200192915050565b6000815162002b0e81856020860162002e4d565b9290920192915050565b825460009081906002810460018083168062002b3557607f831692505b602080841082141562002b595760e060020a634e487b710286526022600452602486fd5b81801562002b70576001811462002b825762002bb1565b60ff1986168952848901965062002bb1565b60008b81526020902060005b8681101562002ba95781548b82015290850190830162002b8e565b505084890196505b505050505050620007a3818562002afa565b6000600160a060020a0380871683528086166020840152508360408301526080606083015262002bf7608083018462002acc565b9695505050505050565b60208152600062002694602083018462002acc565b600061010080835262002c2c8184018c62002acc565b9050828103602084015262002c42818b62002acc565b60408401999099525050600160a060020a03958616606082015293909416608084015260a083019190915260c082015260e0015292915050565b60208082526032908201527f4552433732313a207472616e7366657220746f206e6f6e20455243373231526560408201527f63656976657220696d706c656d656e7465720000000000000000000000000000606082015260800190565b6020808252602e908201527f496e697469616c697a61626c653a20636f6e747261637420697320616c72656160408201527f647920696e697469616c697a6564000000000000000000000000000000000000606082015260800190565b60208082526014908201527f43616c6c6572206973206e6f742041646d696e2e000000000000000000000000604082015260600190565b60208082526010908201527f496e76616c696420616464726573732100000000000000000000000000000000604082015260600190565b60208082526031908201527f4552433732313a207472616e736665722063616c6c6572206973206e6f74206f60408201527f776e6572206e6f7220617070726f766564000000000000000000000000000000606082015260800190565b6000821982111562002e175762002e1762002f0b565b500190565b60008262002e2e5762002e2e62002f24565b500490565b60008282101562002e485762002e4862002f0b565b500390565b60005b8381101562002e6a57818101518382015260200162002e50565b838111156200159a5750506000910152565b60008162002e8e5762002e8e62002f0b565b506000190190565b60028104600182168062002eab57607f821691505b6020821081141562002ed05760e060020a634e487b7102600052602260045260246000fd5b50919050565b600060001982141562002eed5762002eed62002f0b565b5060010190565b60008262002f065762002f0662002f24565b500690565b60e060020a634e487b7102600052601160045260246000fd5b60e060020a634e487b7102600052601260045260246000fd5b60e060020a634e487b7102600052603260045260246000fd5b60e060020a634e487b7102600052604160045260246000fd5b8015158114620021a357600080fd5b600160e060020a031981168114620021a357600080fdfe608060405234801561001057600080fd5b506040516101ce3803806101ce83398101604081905261002f916100ee565b600160a060020a0381166100c9576040517f08c379a000000000000000000000000000000000000000000000000000000000815260206004820152602260248201527f496e76616c69642073696e676c65746f6e20616464726573732070726f76696460448201527f6564000000000000000000000000000000000000000000000000000000000000606482015260840160405180910390fd5b60008054600160a060020a031916600160a060020a039290921691909117905561011e565b60006020828403121561010057600080fd5b8151600160a060020a038116811461011757600080fd5b9392505050565b60a28061012c6000396000f3fe6080604052600073ffffffffffffffffffffffffffffffffffffffff8154167fa619486e0000000000000000000000000000000000000000000000000000000082351415604e57808252602082f35b3682833781823684845af490503d82833e806067573d82fd5b503d81f3fea2646970667358221220198b516c5c5003588034d8d3029285a7b380a6f677a79325b6a4abde1f59856c64736f6c63430008060033a264697066735822122075437ce570de35c87406ef44addea77b75607196d900a8e4cbb26ed748be021464736f6c63430008060033",
  "immutableReferences": {},
  "source": "// SPDX-License-Identifier: MIT\r\n\r\npragma solidity 0.8.6;\r\n\r\nimport \"@openzeppelin/contracts-upgradeable/token/ERC721/ERC721Upgradeable.sol\";\r\nimport \"./GAX_Artbits.sol\";\r\nimport \"./proxy/ArtbitsProxy.sol\";\r\n\r\n/**\r\n * @title ERC721Minter\r\n * @dev This Contract is used to interact with ERC721 Contract\r\n */\r\ncontract GAX_FNFT is ERC721Upgradeable {\r\n    using StringsUpgradeable for uint256;\r\n\r\n    struct NFT_Asset {\r\n        uint256 nftAssetId;\r\n        address nftAsset_owner;\r\n        address erc20_addr;\r\n        string artist;\r\n    }\r\n\r\n    string private _baseTokenURI;\r\n    address public superAdmin;\r\n    address public gaxAdmin;\r\n    address public artbitAddr;\r\n\r\n    uint256 public whiteList_count;\r\n    uint256 public dexList_count;\r\n    uint256 internal totalCommission;\r\n    uint256 internal totalRoyalty;\r\n    uint256 public erc20decimals;\r\n\r\n    mapping(uint256 => NFT_Asset) private nftAssets;\r\n    mapping(uint256 => string) private _tokenURIs;\r\n    mapping(address => bool) private whiteList_addresses;\r\n    mapping(address => bool) private dex_addresses;\r\n\r\n    event ArtbitsMinted(\r\n        uint256 indexed tokenId,\r\n        address indexed _contractAddress,\r\n        string _uri\r\n    );\r\n\r\n    event ArtbitTransferred(\r\n        address sender,\r\n        address recepient,\r\n        uint256 assetId,\r\n        uint256 amount\r\n    );\r\n    \r\n    function initialize(\r\n        string memory _name,\r\n        string memory _symbol,\r\n        string memory _BaseUri,\r\n        address _gaxAdmin,        \r\n        address _artbitAddr\r\n    ) public virtual initializer {\r\n        __ERC721_init(_name, _symbol);\r\n        __Context_init_unchained();\r\n        __ERC165_init_unchained();\r\n        _baseTokenURI = _BaseUri;\r\n        gaxAdmin = _gaxAdmin;\r\n        artbitAddr = _artbitAddr;\r\n        superAdmin = msg.sender;\r\n    }\r\n\r\n    modifier onlyAdmin() {\r\n        require(msg.sender == gaxAdmin, \"Caller is not Admin.\");\r\n        _;\r\n    }\r\n\r\n    modifier onlySuperAdmin() {\r\n        require(msg.sender == superAdmin, \"Caller is not Super Admin.\");\r\n        _;\r\n    }\r\n\r\n    modifier onlyArtbitToken(uint256 tokenId) {\r\n        address artbitAddress = nftAssets[tokenId].erc20_addr;\r\n        require(msg.sender == artbitAddress, \"unauthorized\");\r\n        _;\r\n    }\r\n\r\n    function changeOwnership(address _newOwner) external onlyAdmin {\r\n        require(_newOwner != address(0), \"Invalid address!\");\r\n        gaxAdmin = _newOwner;\r\n    }\r\n\r\n    function changeSuperadmin(address _newAdmin) external onlySuperAdmin {\r\n        require(_newAdmin != address(0), \"Invalid address!\");\r\n        superAdmin = _newAdmin;\r\n    }\r\n\r\n    function changeArtbitAddress(address _newAddress) external onlySuperAdmin {\r\n        require(_newAddress != address(0), \"Invalid address!\");\r\n        artbitAddr = _newAddress;\r\n    }\r\n\r\n    /**\r\n     * @notice This method is used to mint a token\r\n     * @param _dex_rp dex royalty percentage for the nftAsset\r\n     * @param _p2p_rp peer2peer royalty percentage for the nftAsset\r\n     * @param _noOfArtbits totalsupply of erc20\r\n     * @param _artist Artist of the asse\r\n     */\r\n\r\n    function mintToken(\r\n        string memory _name,\r\n        string memory _symbol,\r\n        uint256 _tokenId,\r\n        uint256 _dex_rp,\r\n        uint256 _p2p_rp,\r\n        uint256 _noOfArtbits,\r\n        string memory _artist,\r\n        string memory _uri\r\n    ) external onlyAdmin {\r\n        // nft mint\r\n        _safeMint(gaxAdmin, _tokenId);\r\n        _setTokenURI(_tokenId, _uri);\r\n\r\n        // erc20 mint\r\n        address artbitInstanceAdr = address(\r\n                    _createProxy(\r\n                        artbitAddr,\r\n                        abi.encodeWithSignature(\r\n                            \"initialize(string,string,uint256,address,address,uint256,uint256,uint256)\",\r\n                            _name,\r\n                            _symbol,\r\n                            _noOfArtbits,\r\n                            gaxAdmin,\r\n                            address(this),\r\n                            _tokenId,\r\n                            _dex_rp,\r\n                            _p2p_rp\r\n                        )\r\n                    )\r\n        );\r\n\r\n      //NFT_Asset update\r\n        NFT_Asset memory newNft = NFT_Asset(\r\n            _tokenId,\r\n            gaxAdmin,\r\n            artbitInstanceAdr,\r\n            _artist\r\n        );\r\n        nftAssets[_tokenId] = newNft;\r\n       emit ArtbitsMinted(_tokenId, artbitInstanceAdr, _uri);\r\n    }\r\n\r\n    function transferToken(\r\n        address _to,\r\n        uint256 _assetId,\r\n        uint256 _artBits\r\n    ) external onlyAdmin {\r\n        GAX_Artbits artbitInstance = getartbitInstance(_assetId);\r\n        artbitInstance.transferPlatform(msg.sender, _to, _artBits);\r\n        emit ArtbitTransferred(msg.sender, _to, _assetId, _artBits);\r\n    }\r\n\r\n    function getartbitInstance(uint256 _nftAssetId)\r\n        public\r\n        view\r\n        returns (GAX_Artbits)\r\n    {\r\n        NFT_Asset memory nftAsset = nftAssets[_nftAssetId];\r\n        GAX_Artbits artbitInstance = GAX_Artbits(nftAsset.erc20_addr);\r\n        return artbitInstance;\r\n    }\r\n\r\n    function checkArtbitUserBalance(uint256 _nftAssetId, address userAddr)\r\n        public\r\n        view\r\n        returns (uint256)\r\n    {\r\n        NFT_Asset memory nftAsset = nftAssets[_nftAssetId];\r\n        GAX_Artbits artbitInstance = GAX_Artbits(nftAsset.erc20_addr);\r\n        return artbitInstance.balanceOf(userAddr);\r\n    }\r\n\r\n    function _baseURI() internal view virtual override returns (string memory) {\r\n        return _baseTokenURI;\r\n    }\r\n\r\n    function getTotCommissionAmt() external view returns (uint256) {\r\n        return totalCommission;\r\n    }\r\n\r\n    function addCommissionAmt(uint256 amt, uint256 tokenId) external onlyArtbitToken(tokenId) {\r\n        totalCommission += amt;\r\n    }\r\n\r\n    function getTotRoyaltyAmt() external view returns (uint256) {\r\n        return totalRoyalty;\r\n    }\r\n\r\n    function addRoyaltyAmt(uint256 amt, uint256 tokenId) external onlyArtbitToken(tokenId) {\r\n        totalRoyalty += amt;\r\n    }\r\n\r\n    /** WHITELISTED ADDRESSES MANAGEMENT */\r\n    function addWhiteListAddresses(address _whiteListAddr) external onlyAdmin {\r\n        require(isWhitelisted(_whiteListAddr), \"Address already whitelisted.\");\r\n        whiteList_count++;\r\n        whiteList_addresses[_whiteListAddr] = true;\r\n    }\r\n\r\n    function removeWhiteListAddresses(address _whiteListAddr)\r\n        external\r\n        onlyAdmin\r\n    {\r\n        require(!isWhitelisted(_whiteListAddr), \"Address not whitelisted.\");\r\n        whiteList_count--;\r\n        whiteList_addresses[_whiteListAddr] = false;\r\n    }\r\n\r\n    function isWhitelisted(address _whitelistedAddr)\r\n        public\r\n        view\r\n        returns (bool)\r\n    {\r\n        return whiteList_addresses[_whitelistedAddr];\r\n    }\r\n\r\n    /** DEX ADDRESSES MANAGEMENT */\r\n    function addDexAddresses(address _dexAddr) external onlyAdmin {\r\n        require(isDexAddress(_dexAddr), \"Address already added as Dex.\");\r\n        dexList_count++;\r\n        dex_addresses[_dexAddr] = true;\r\n    }\r\n\r\n    function removeDexAddresses(address _dexAddr) external onlyAdmin {\r\n        require(!isDexAddress(_dexAddr), \"Address not added as Dex.\");\r\n        dexList_count--;\r\n        dex_addresses[_dexAddr] = false;\r\n    }\r\n\r\n    function isDexAddress(address _dexAddress) public view returns (bool) {\r\n        return dex_addresses[_dexAddress];\r\n    }\r\n\r\n    /**\r\n     * @dev See {IERC721Metadata-tokenURI}.\r\n     */\r\n    function tokenURI(uint256 tokenId)\r\n        public\r\n        view\r\n        override\r\n        returns (string memory)\r\n    {\r\n        require(\r\n            _exists(tokenId),\r\n            \"ERC721Metadata: URI query for nonexistent token\"\r\n        );\r\n\r\n        string memory _tokenURI = _tokenURIs[tokenId];\r\n\r\n        // If there is no base URI, return the token URI.\r\n        if (bytes(_baseTokenURI).length == 0) {\r\n            return _tokenURI;\r\n        }\r\n        // If both are set, concatenate the baseURI and tokenURI (via abi.encodePacked).\r\n        if (bytes(_tokenURI).length == 0) {\r\n            // If there is a baseURI but no tokenURI, concatenate the tokenID to the baseURI.\r\n            return string(abi.encodePacked(_baseTokenURI, tokenId.toString()));\r\n        }\r\n\r\n        return string(abi.encodePacked(_baseTokenURI, _tokenURI));\r\n    }\r\n\r\n    function _setTokenURI(uint256 tokenId, string memory _tokenURI)\r\n        internal\r\n        virtual\r\n    {\r\n        require(\r\n            _exists(tokenId),\r\n            \"ERC721Metadata: URI set of nonexistent token\"\r\n        );\r\n\r\n        bytes memory tempBytes = bytes(_tokenURI);\r\n        if (tempBytes.length > 0) _tokenURIs[tokenId] = _tokenURI;\r\n    }\r\n\r\n    // function getnftAsset(uint256 _tokenId) public view returns(NFT_Asset memory, string memory){\r\n    //     return (nftAssets[_tokenId], tokenURI(_tokenId));\r\n    // }\r\n\r\n    function _beforeTokenTransfer(\r\n        address from,\r\n        address to,\r\n        uint256 tokenId\r\n    ) internal virtual override(ERC721Upgradeable) {\r\n        super._beforeTokenTransfer(from, to, tokenId);\r\n    }\r\n\r\n    /// @notice Allows to create new proxy contact and execute a message call to the new proxy within one transaction.\r\n    /// @param singleton Address of singleton contract.\r\n    /// @param data Payload for message call sent to new proxy contract.\r\n    function _createProxy(address singleton, bytes memory data)\r\n        internal\r\n        returns (ArtbitsProxy proxy)\r\n    {\r\n        proxy = new ArtbitsProxy(singleton);\r\n        if (data.length > 0)\r\n            // solhint-disable-next-line no-inline-assembly\r\n            assembly {\r\n                if eq(\r\n                    call(gas(), proxy, 0, add(data, 0x20), mload(data), 0, 0),\r\n                    0\r\n                ) {\r\n                    revert(0, 0)\r\n                }\r\n            }\r\n      //  emit ProxyCreation(proxy, singleton);\r\n    }\r\n\r\n    /**\r\n     * @dev See {IERC165-supportsInterface}.\r\n     */\r\n    function supportsInterface(bytes4 interfaceId)\r\n        public\r\n        view\r\n        virtual\r\n        override(ERC721Upgradeable)\r\n        returns (bool)\r\n    {\r\n        return super.supportsInterface(interfaceId);\r\n    }\r\n}\r\n",
  "sourcePath": "C:\\ACCUBITS\\PROJECT\\GAE\\workouts\\gae-blockchain\\contracts\\GAX_FNFT.sol",
  "compiler": {
    "name": "solc",
    "version": "0.8.6+commit.11564f7e.Emscripten.clang"
  },
  "schemaVersion": "3.4.3",
  "updatedAt": "2022-08-19T10:05:40.717Z",
  "networkType": "ethereum",
  "devdoc": {
    "details": "This Contract is used to interact with ERC721 Contract",
    "kind": "dev",
    "methods": {
      "approve(address,uint256)": {
        "details": "See {IERC721-approve}."
      },
      "balanceOf(address)": {
        "details": "See {IERC721-balanceOf}."
      },
      "getApproved(uint256)": {
        "details": "See {IERC721-getApproved}."
      },
      "isApprovedForAll(address,address)": {
        "details": "See {IERC721-isApprovedForAll}."
      },
      "mintToken(string,string,uint256,uint256,uint256,uint256,string,string)": {
        "params": {
          "_artist": "Artist of the asse",
          "_dex_rp": "dex royalty percentage for the nftAsset",
          "_noOfArtbits": "totalsupply of erc20",
          "_p2p_rp": "peer2peer royalty percentage for the nftAsset"
        }
      },
      "name()": {
        "details": "See {IERC721Metadata-name}."
      },
      "ownerOf(uint256)": {
        "details": "See {IERC721-ownerOf}."
      },
      "safeTransferFrom(address,address,uint256)": {
        "details": "See {IERC721-safeTransferFrom}."
      },
      "safeTransferFrom(address,address,uint256,bytes)": {
        "details": "See {IERC721-safeTransferFrom}."
      },
      "setApprovalForAll(address,bool)": {
        "details": "See {IERC721-setApprovalForAll}."
      },
      "supportsInterface(bytes4)": {
        "details": "See {IERC165-supportsInterface}."
      },
      "symbol()": {
        "details": "See {IERC721Metadata-symbol}."
      },
      "tokenURI(uint256)": {
        "details": "See {IERC721Metadata-tokenURI}."
      },
      "transferFrom(address,address,uint256)": {
        "details": "See {IERC721-transferFrom}."
      }
    },
    "title": "ERC721Minter",
    "version": 1
  },
  "userdoc": {
    "kind": "user",
    "methods": {
      "addDexAddresses(address)": {
        "notice": "DEX ADDRESSES MANAGEMENT "
      },
      "addWhiteListAddresses(address)": {
        "notice": "WHITELISTED ADDRESSES MANAGEMENT "
      },
      "mintToken(string,string,uint256,uint256,uint256,uint256,string,string)": {
        "notice": "This method is used to mint a token"
      }
    },
    "version": 1
  }
}