{
  "contractName": "Migrations",
  "abi": [
    {
      "inputs": [],
      "stateMutability": "nonpayable",
      "type": "constructor"
    },
    {
      "inputs": [],
      "name": "last_completed_migration",
      "outputs": [
        {
          "internalType": "uint256",
          "name": "",
          "type": "uint256"
        }
      ],
      "stateMutability": "view",
      "type": "function",
      "constant": true
    },
    {
      "inputs": [],
      "name": "owner",
      "outputs": [
        {
          "internalType": "address",
          "name": "",
          "type": "address"
        }
      ],
      "stateMutability": "view",
      "type": "function",
      "constant": true
    },
    {
      "inputs": [
        {
          "internalType": "uint256",
          "name": "completed",
          "type": "uint256"
        }
      ],
      "name": "setCompleted",
      "outputs": [],
      "stateMutability": "nonpayable",
      "type": "function"
    },
    {
      "inputs": [
        {
          "internalType": "address",
          "name": "new_address",
          "type": "address"
        }
      ],
      "name": "upgrade",
      "outputs": [],
      "stateMutability": "nonpayable",
      "type": "function"
    }
  ],
  "bytecode": "0x608060405234801561001057600080fd5b5060008054600160a060020a03191633179055610257806100326000396000f3fe608060405234801561001057600080fd5b5060043610610068577c010000000000000000000000000000000000000000000000000000000060003504630900f010811461006d578063445df0ac146100825780638da5cb5b1461009e578063fdacd576146100e3575b600080fd5b61008061007b3660046101cb565b6100f6565b005b61008b60015481565b6040519081526020015b60405180910390f35b6000546100be9073ffffffffffffffffffffffffffffffffffffffff1681565b60405173ffffffffffffffffffffffffffffffffffffffff9091168152602001610095565b6100806100f1366004610208565b6101a6565b60005473ffffffffffffffffffffffffffffffffffffffff163314156101a3576001546040517ffdacd576000000000000000000000000000000000000000000000000000000008152829173ffffffffffffffffffffffffffffffffffffffff83169163fdacd5769161016f9160040190815260200190565b600060405180830381600087803b15801561018957600080fd5b505af115801561019d573d6000803e3d6000fd5b50505050505b50565b60005473ffffffffffffffffffffffffffffffffffffffff163314156101a357600155565b6000602082840312156101dd57600080fd5b813573ffffffffffffffffffffffffffffffffffffffff8116811461020157600080fd5b9392505050565b60006020828403121561021a57600080fd5b503591905056fea26469706673582212207e13e552305798f8661df4db5a5a66a220baeddede282f950aa28a3afec2ce7c64736f6c63430008060033",
  "immutableReferences": {},
  "source": "// SPDX-License-Identifier: MIT\r\npragma solidity ^0.8.0;\r\n\r\ncontract Migrations {\r\n  address public owner;\r\n  uint public last_completed_migration;\r\n\r\n  modifier restricted() {\r\n    if (msg.sender == owner) _;\r\n  }\r\n\r\n  constructor () {\r\n    owner = msg.sender;\r\n  }\r\n\r\n  function setCompleted(uint completed) public restricted {\r\n    last_completed_migration = completed;\r\n  }\r\n\r\n  function upgrade(address new_address) public restricted {\r\n    Migrations upgraded = Migrations(new_address);\r\n    upgraded.setCompleted(last_completed_migration);\r\n  }\r\n}\r\n\r\n/* Copyright (C) 2022 Global Art Exchange, LLC (\"GAX\"). All Rights Reserved.\r\n * You may not use, distribute and modify this code without a license;\r\n  To obtain a license write to legal@gax.llc */\r\n",
  "sourcePath": "C:\\ACCUBITS\\PROJECT\\GAE\\workouts\\gae-blockchain\\contracts\\Migrations.sol",
  "compiler": {
    "name": "solc",
    "version": "0.8.6+commit.11564f7e.Emscripten.clang"
  },
  "schemaVersion": "3.4.3",
  "updatedAt": "2022-08-19T10:05:40.748Z",
  "networkType": "ethereum",
  "devdoc": {
    "kind": "dev",
    "methods": {},
    "version": 1
  },
  "userdoc": {
    "kind": "user",
    "methods": {},
    "version": 1
  }
}